:020000040800F2
:10000000781D00209D0100086B0C00089502000877
:10001000690C000809020008C30D00080000000078
:10002000000000000000000000000000A10C00081B
:1000300039020008000000009F0C0008A30C000813
:10004000B7010008B7010008B7010008B7010008B0
:10005000B7010008B7010008B7010008B7010008A0
:100060007D020008B7010008B70100080D02000872
:10007000B7010008B7010008B7010008B701000880
:10008000B7010008B7010008B7010008B701000870
:10009000B7010008B7010008B7010008B701000860
:1000A0008D0D0008B7010008B7010008B70100086E
:1000B000B7010008B7010008B7010008B701000840
:1000C000B7010008B7010008B7010008B701000830
:1000D000B7010008BD0D0008B7010008BF0D0008FA
:1000E0003D020008B7010008B7010008B701000889
:1000F000B7010008B7010008B7010008B701000800
:10010000B7010008B7010008B7010008B7010008EF
:10011000B7010008B7010008B7010008B7010008DF
:10012000B7010008B7010008B7010008B7010008CF
:10013000B7010008B7010008B7010008B7010008BF
:10014000B7010008B7010008B7010008B7010008AF
:10015000B7010008B7010008B7010008C10D000889
:10016000B7010008B7010008B7010008B70100088F
:10017000B7010008B7010008B7010008000000003F
:10018000B7010008B7010008DFF80CD000F02AF82A
:1001900000480047C5110008781D00200648804728
:1001A00006480047FEE7FEE7FEE7FEE7FEE7FEE75C
:1001B000FEE7FEE7FEE7FEE7710D00088901000893
:1001C000D2B201E000F8012B491EFBD27047002299
:1001D000F6E710B513460A4604461946FFF7F0FF46
:1001E000204610BD064C074D06E0E06840F00103D4
:1001F00094E8070098471034AC42F6D3FFF7C8FFE5
:100200000C1300082C130008FEE7000009480168E1
:10021000C1F3001119B110218160002007E00168CD
:10022000C1F34011002904D020218160012000F099
:100230001BBF7047006002407047000070B54FF46C
:100240008064204600F0E4F80A4D00B12C604FF4C1
:100250008054204600F0DCF800280AD02C600648C4
:1002600001210170C1687822B1FBF2F141600021E7
:10027000C16070BD143C01400000002010B5042096
:1002800000F0C6F8002802D001490420086010BD23
:10029000143C0140FEE7000000B587B01821684615
:1002A000FFF795FF082000F02DF809484FF4704142
:1002B0000A048261009101210222CDE9011200228B
:1002C000CDE90321694600F0ADF807B000BD00009C
:1002D000000C0240044908B50A6802430A60096834
:1002E0000140009108BD000030380240044908B5C3
:1002F0000A6802430A6009680140009108BD0000D5
:1003000040380240044908B50A6802430A60096897
:100310000140009108BD000044380240034A515C8E
:10032000425822F0010242507047000004130008B6
:10033000034A515C425842F00102425070470000AB
:1003400004130008044B001D595C0B586FF30F0396
:1003500013430B507047000004130008034B595C13
:10036000435823F490731343435070470413000819
:1003700030B5264A002405790168131F85B371B38F
:1003800045798DB1012D17D0022D18D00124837924
:100390002BB31E4908310A1F012B18D0022B20D085
:1003A000032B22D0012428E015688D4315600168D5
:1003B0001A680A431A60EAE71D688D4301E01D6868
:1003C0000D431D60016813680B431360DFE703688A
:1003D0000D689D430D6000681168014311600CE0D9
:1003E0000DE0036815689D4302E0036815681D432E
:1003F000156000680A6802430A60204630BD1D6827
:100400008D431D60006811688143E7E7043C0140AB
:1004100003490968884301D00020704701207047D4
:10042000143C01402DE9F0430A68012592FAA2F23A
:10043000B2FA82F34FF00F08032493E005FA03F6B3
:1004400032407DD04E68012E01D0022E28D18E6818
:10045000876892FAA2FCBCFA8CFC4FEA4C0C04FAB6
:100460000CFC27EA0C0792FAA2FCBCFA8CFC4FEABF
:100470004C0C06FA0CF637438760D1F80C904668AE
:1004800092FAA2F7B7FA87F705FA07FC26EA0C06F4
:1004900092FAA2FCBCFA8CFC09FA0CF73E434660C7
:1004A000D1F810C0C66892FAA2F7B7FA87F77F00B2
:1004B00004FA07F7BE4392FAA2F7B7FA87F77F006C
:1004C0000CFA07FC46EA0C06C6604E68022E32D1D2
:1004D00092FAA2F6B6FA86F6082E4E6915D2076A87
:1004E00092FAA2FCBCFA8CFC4FEA8C0C08FA0CFCC9
:1004F00027EA0C0792FAA2FCBCFA8CFC4FEA8C0C9F
:1005000006FA0CF63743076215E0476AB1464FEA30
:10051000122C9CFAACF6B6FA86F6B60008FA06F685
:10052000B7439CFAACF6B6FA86F64FEA860C09FA9F
:100530000CF6374347624E68076892FAA2FC00E067
:100540000FE0BCFA8CFC4FEA4C0C04FA0CF992FA5E
:10055000A2F2B2FA82F2520027EA09079640374324
:1005600007605B1C0A6832FA03F67FF467AF00206D
:10057000BDE8F08330B5036891FAA1F4B4FA84F4CD
:1005800065000324AC4091FAA1F1B1FA81F1490070
:10059000A3438A401343036030BD30B5C36891FA6A
:1005A000A1F4B4FA84F465000324AC4091FAA1F1FB
:1005B000B1FA81F14900A3438A401343C36030BDBF
:1005C0004FF47A71B0FBF1F14FF0E020491E416128
:1005D0000021816105210161704700000A06930D29
:1005E000074A1A44D2F8083823EA1143090C91FA51
:1005F000A1F1B1FA81F188400343C2F8083870478D
:1006000000300140014908607047000018000020D8
:10061000F0B50268254B264D264E274F274C4FF04C
:10062000804C984209D0604507D0A84205D0B0421E
:1006300003D0B84201D0A04205D1D1F804E022F0A5
:10064000700242EA0E0298421BD0604519D0A842BF
:1006500017D0B04215D0B84213D0A04211D0184DD7
:10066000A8420ED0174DA8420BD0174DA84208D073
:10067000164DA84205D0164DA84202D0154DA842ED
:1006800003D1CD6822F440722A4302608A68C262B4
:100690000A888262984201D0A04201D1097C01639C
:1006A000416941F0010141610020F0BD00000140BD
:1006B0000004004000080040000C0040000401401D
:1006C0000040014000440140004801400018004043
:1006D000001C004000200040012919D0042919D035
:1006E000102919D0402919D0B1F5807F18D0B1F563
:1006F000806F17D006210C4A1830525C10440268F3
:10070000094BDB1D5B5C042199408A430260704702
:100710000021F0E70121EEE70221ECE70321EAE7FF
:100720000421E8E70521E6E7E0120008012919D0D5
:10073000042919D0102919D0402919D0B1F5807F8A
:1007400018D0B1F5806F17D006210C4A1830525CD2
:1007500010440268094BDB1D5B5C082199400A4389
:10076000026070470021F0E70121EEE70221ECE78B
:100770000321EAE70421E8E70521E6E7E0120008A3
:10078000F0B5012600236E4C6E4D012908D01029CA
:100790003BD0B1F5807F73D0B1F5805F6ED1A6E01C
:1007A000016A21F001010162016A46688769D2F895
:1007B00000C027F0730747EA0C07D2F810C021F0F9
:1007C000020141EA0C01D2F804C021F0010141EA22
:1007D0000C01A04201D0A84212D1546921F00801B5
:1007E00041EA8401946821F0040141EA8401956999
:1007F00026F480742C43D56924F4007444EA450639
:1008000046608761D26842636FE0016A21F010019F
:100810000162066A41688769D2F800C027F4E6479A
:1008200047EA0C27D2F810C026F0200646EA0C163C
:10083000D2F804C026F0100646EA0C16A04201D0F9
:10084000A84213D1556926F0800444EA85149568BE
:1008500024F0400444EA8516946921F4806141EA59
:100860008401D46921F4006141EAC40141608761D7
:10087000D168816361E003E000E01E463046F0BDD0
:10088000016A21F480710162016A4668C769D2F881
:1008900000C027F0730747EA0C07D2F810C021F414
:1008A000007141EA0C21D2F804C021F4807141EAC0
:1008B0000C21A04201D0A84213D1546921F4006157
:1008C00041EA8421946821F4806141EA8421956998
:1008D00026F4805444EA0514D56924F4005444EA0B
:1008E00045164660C761D268C2630162C5E7016A06
:1008F00021F480510162066A4168C769D2F800C0DC
:1009000027F4E64747EA0C27D2F810C026F4005631
:1009100046EA0C36D2F804C026F4805646EA0C3675
:10092000A04201D0A84204D1946921F4804141EA57
:1009300084114160C761D168016406629DE70000CF
:10094000000001400004014010B54FF40010FFF713
:10095000C1FC00F045FA0022012100F087F90146B0
:100960000B2000F045FABDE810400B2000F02ABA39
:100970002DE9FC410025009580200195FFF7AAFC98
:100980000120FFF7A7FC0220FFF7A4FC0820FFF7D7
:10099000A1FC0420FFF79EFC4FF070610020FFF7E0
:1009A0001DFE33490220FFF719FE32490220FFF7EE
:1009B00015FE012404208DF8044000908DF80550A8
:1009C0008DF806406846FFF7D3FC8DF804408DF89B
:1009D00005500220A6028DF8060000966846FFF733
:1009E000C7FC8DF8044027038DF8055000978DF85B
:1009F00006406846FFF7BCFC1F4C0022042120463D
:100A0000FFF7CBFD1D4D012231462846FFF7C5FDFE
:100A1000002239462846FFF7C0FD00220421204667
:100A2000FFF7A8FD002231462846FFF7A3FD00226C
:100A300039462846FFF79EFD00F0D2F90022042136
:100A400000F014F90146082000F0D2F9082000F067
:100A5000B9F900F0C5F90022114600F007F9014686
:100A6000282000F0C5F9282000F0ACF9BDE8FC8191
:100A70000200000F03000F000000024000080240C7
:100A800070B594B014210EA8FFF7A1FB2021684691
:100A9000FFF79DFB182108A8FFF799FB0420FFF73B
:100AA00025FC52484F4C4F49037808344E4A1A519E
:100AB00002788A58037842F01002CA5002788A58A5
:100AC000037842F00802CA5002788A58037822F06C
:100AD000606242F08062CA5002788A58037822F03D
:100AE000C00242F04002CA5002788A58037842F4A9
:100AF0004032CA5002788A58037822F4907242F445
:100B00008072CA5002788A58037822F40072CA5060
:100B100002788A58037842F48062CA5002788D14B1
:100B20008A58037822F4C05242F48052CA500278A4
:100B30008A58037822F4C04242F48042CA502949BC
:100B4000027814315258007822F0040242500026F4
:100B5000ADF838606820CDE90F60234C0EA9343C15
:100B600020461196FFF754FD206820F08000206099
:100B700001212046FFF7DAFD6020CDE9000602964C
:100B800003966A46012120460496FFF7F9FD0121EC
:100B90002046FFF7A1FD606820F070006060A0684B
:100BA00020F08000A060E06A1421B0FBF1F0401E4C
:100BB0006063206A40F001002062E06840F4007049
:100BC000E0600820FFF786FB09AA022003210895B0
:100BD00082E84300CDE90C6008A90548FFF722FC34
:100BE00014B070BD0060024034080040FC120008E0
:100BF000000C024010B586B014216846FFF7E7FAF2
:100C00004FF48030FFF77EFB00F0EAF8002202216B
:100C100000F02CF80146182000F0EAF8182000F047
:100C2000D1F8A720ADF8000000200921CDE901018D
:100C30000C4C039069462046FFF7EAFC206820F040
:100C400080002060A06844F207018843A06020680B
:100C500040F001002060E06840F00100E06006B074
:100C600010BD000000400140FEE7704730B500F0C5
:100C70000703C3F10704042C00D90424181D072816
:100C800001D2002300E0DB1E012505FA04F0401E1E
:100C9000084098409D406D1E1540284330BD704768
:100CA000704770472C4810B5016821F00F0141F0E2
:100CB0000501016000682948016841F48041016034
:100CC0002748016841F4803101600168C1F3404167
:100CD0000029FAD02249234A091D0B68224C2340DF
:100CE0001A430A600A6822F440320A60016841F03F
:100CF000807101600168C1F340610029FAD0184891
:100D00000830016821F0F0010160016821F4E05130
:100D100041F4A0510160016821F4604141F40041B7
:100D20000160016821F0030141F0020101600168E6
:100D300001F00C010829FAD10C4C2046FFF740FCC9
:100D40004FF0E021086940F0040008612046BDE84A
:100D50001040FFF757BC0000003C0240007000400C
:100D600000380240085440000080BFFF007A030AA8
:100D70000548016841F47001016003494FF00060CB
:100D8000803908607047000088ED00E0094801697B
:100D900011F0010F0CD06FF0010101610648C1682C
:100DA000491CC1608168002902D08168491E8160A8
:100DB000704700000040014000000020704770476D
:100DC0007047FEE7002809DB00F01F020121914077
:100DD0004009800000F1E020C0F8001170470000D9
:100DE00002480068C0F30220704700000CED00E0EC
:100DF0000907090E002804DB00F1E02080F8001448
:100E0000704700F00F0000F1E02080F8141D7047DB
:100E100002E008C8121F08C1002AFAD170477047C3
:100E2000002001E001C1121F002AFBD17047000021
:100E300010B50021084C012201EBC10303EB0113A3
:100E4000002004EB43031A54401C3228FBDB491CEE
:100E50006429F1DB10BD0000080200202DE9F043F9
:100E600064283AD200EB40071D4C00223E191D4871
:100E70004FF001095FF0030396F801C0C2F10708C3
:100E800009FA08F51CEA050FD0F800C001D04FEAB6
:100E90004C0CBCFBF3FC41F822C014F807C01CEA60
:100EA000050FD0F800C001D04FEA4C0CBCFBF3F8A2
:100EB00001EB820CCCF8208096F8028018EA050F2E
:100EC000056800D06D00B5FBF3F5521CCCF840501E
:100ED000082AD1D30120BDE8F0830020FBE7000001
:100EE0001C0000202C0800400348407808B1002076
:100EF00070470120704700001000002070B5642882
:100F000036D21C4A00EB40050023FE24A81809290C
:100F10002ED2DFE801F02D050A0F14191E23280038
:100F2000535543708370012070BD545543708370D6
:100F3000022070BD535544708370032070BD53551B
:100F400043708470042070BD545544708370052034
:100F500070BD545543708470062070BD5355447065
:100F60008470072070BD545544708470082070BD93
:100F7000002070BD1C00002030B5C4B2084AC0F388
:100F800007230021C0F3074001EB4105491C5455DC
:100F9000154464296B70A870F6D3012030BD0000A1
:100FA0001C00002070B504461F48C02104701F4873
:100FB000FFF70DF9012C06D11D4800680321B0FB95
:100FC000F1F01A4908601B4C002211462046FFF739
:100FD000C5F9194D174915482A780C315050282267
:100FE00000212046FFF7AEF92020A0601020A0606D
:100FF00028782058297820F0080060502878205858
:10100000297840F01000605000212046FFF790F949
:1010100007482C38016A41F001010162016841F082
:1010200001010160012070BD100000204801002076
:101030002C080040006002400413000810B504466C
:101040000848417809B1002010BD012141700846CF
:10105000FFF7A8FF24B100BFFFF746FF0028FBD031
:10106000012010BD100000202DE9F04108B1012140
:1010700000E00021374C0027374D2078374E0228FA
:101080003ED0374A0128904644D06068401C6060DA
:1010900064284FD298B391B34FEA0201FFF7DEFE06
:1010A0006068002829D1012041466060FFF7D6FE24
:1010B0004FF48072002134463046FFF74FF9294E35
:1010C00027482649603832780C31505030220021B0
:1010D0002046FFF737F92020A0601020A06030786C
:1010E0002058317840F00800605000212046FFF77A
:1010F0001FF9286A40F001002862BDE8F08115E080
:10110000286A20F00100286200213046FFF706F926
:101110006770F2E70029F0D0286A20F00100286209
:1011200000213046FFF7FAF8277067600C496068C5
:101130006039B3E70029E0D0286A20F00100286276
:1011400000213046FFF7EAF8BDE8F0410220FFF742
:1011500029BF00001000002000080040006002408D
:10116000A8010020041300082DE9F0413C2802D218
:1011700000F13C0101E0A0F13C01CDB200EBC00167
:101180000F4E01EB0010002406EB40072046395DAE
:10119000FFF7B4FE641C322CF8DB05EBC50000EB56
:1011A0000510322406EB4005C4F16300295C20469B
:1011B000FFF7A4FE641C642CF6DBBDE8F0810000A0
:1011C00008020020274808B5016841F48041016009
:1011D000006800F4804000902248001F016841F040
:1011E000805101600068204900F08050009008683C
:1011F0004FF6FF0210401D4A40F440701043086053
:10120000FFF750FDFFF748F8FFF79EFBFFF7B0FB35
:10121000FFF736FCFFF7EEFC322060F3174460F373
:10122000070460F30F242046FFF7A6FE0120FFF716
:1012300005FF0F490020401C8842FCD3002161F3C8
:101240001744204661F3070061F30F20FFF794FE77
:101250000120FFF7F3FE00F02BF800BF00F00AF8C2
:10126000FCE70000443802400CED00E00000FA0505
:10127000002D31010C4910B5086800EB80020B48C5
:10128000006882420FD8096801EB4101B0EB410FC1
:1012900009D20524E0B2FFF767FF0120FFF7CEFE79
:1012A000641C0B2CF6DB10BD040000200C00002099
:1012B00010B5FFF7BDFD0521084C062201EBC10367
:1012C00003EB0113162004EB43031A54401C1D28A2
:1012D000FBDB491C0A29F1DB10BD000008020020DD
:1012E00000000000040404000008000000080000E2
:1012F000080000000800020406080A0C10284058E4
:101300007088A0B8102840587088A0B82C13000826
:10131000000000201C000000100E00084813000808
:101320001C0000205C1D0000200E000800000000D2
:1013300000000000000000000000000000000000AD
:08134000000000000024F4008D
:040000050800018965
:00000001FF
